:020000040800F2
:10000000C8070020CD01000851210008492100083F
:100010004D210008DD0A00086923000800000000E7
:10002000000000000000000000000000592100084E
:10003000890B000800000000552100085D21000820
:10004000E7010008E7010008E7010008E7010008F0
:10005000E7010008E7010008E7010008E7010008E0
:10006000E7010008E7010008E7010008E7010008D0
:10007000E7010008E7010008E7010008E7010008C0
:10008000E7010008E7010008E7010008E7010008B0
:10009000E7010008E7010008E7010008E7010008A0
:1000A000E7010008E7010008E7010008E701000890
:1000B000E7010008E7010008E7010008E701000880
:1000C000E7010008E7010008E7010008E701000870
:1000D000E7010008E7010008E7010008E701000860
:1000E000E7010008E7010008E701000800F002F856
:1000F00000F05DF814A696E8000CB244B344DA456B
:1001000001D100F054F8BAE80F000FA696E83000CD
:10011000A5EB040504EB0607AAEB0704A7F101070A
:100120004FEA15154FEA3414A4F10104AC4201D38F
:1001300000F03DF813F0010F18BFFB1A43F0010364
:1001400000F001F8DBE71847E8350000083600004A
:10015000103A24BF78C878C1FAD8520724BF30C8F3
:1001600030C144BF04680C60704700007047000055
:100170000023002400250026103A28BF78C1FBD8B0
:10018000520728BF30C148BF0B607047662903F093
:100190006C82002070471FB500F02AFB040000208D
:1001A000002103F011F8E0601FBD10B510BD00F094
:1001B0001FFC1146FFF7EFFF02F0EAF900F03DFCEB
:1001C00003B4FFF7F2FF03BC00F080FC094880474E
:1001D00009480047FEE7FEE7FEE7FEE7FEE7FEE729
:1001E000FEE7FEE7FEE7FEE704480549054A064B41
:1001F0007047000061210008ED000008C8010020E0
:10020000C8070020C8030020C80300200FB41CB595
:10021000074B06AA7B4469460090059800F0CFFA88
:100220000020694600F0DEFA1CBC5DF814FB0000FB
:10023000CD0500002DE9F0474FF0000A894604463D
:10024000C0F820A02046E1688847002876D02528FD
:1002500006D0D4E901219047206A401C2062F1E7D2
:10026000E168204600258847C4F81CA00646002700
:10027000C4F818A02A2E09D0304602F09DFF38B3EA
:1002800004EB8708303EC8F8186019E059F8041BE1
:10029000204604EB87029161E1688847012F0646FA
:1002A00018D1E069002820DA25F020051DE0D8F8F3
:1002B000180000EB800006EB40003038C8F818004A
:1002C0002046E1688847064602F076FF0028EED116
:1002D000012F0AD02E2E08D12046E16888477F1CC6
:1002E0000646022F45F02005C4DBA069002803DA8A
:1002F000404245F00105A061E80701D025F0100556
:10030000B6B1A6F14100192802D8203645F400659F
:100310004A463146204625604D46FFF737FF58B123
:10032000012806D0ED1D25F0070000F1080989E736
:1003300004E005F1040985E730468AE7206ABDE854
:10034000F0874FF0000200B51346944696462039D8
:1003500022BFA0E80C50A0E80C50B1F12001BFF47E
:10036000F7AF090728BFA0E80C5048BF0CC05DF8E4
:1003700004EB890028BF40F8042B08BF704748BF32
:1003800020F8022B11F0804F18BF00F8012B7047A6
:100390007047704770472DE9FF4F0C461E464FF0DF
:1003A000FF378BB0D2E90001DDF860800A908A4601
:1003B000C1F30A5505B93D46002108464FF000003B
:1003C000BAF1000F00F4400005DA00EB80004FF4B2
:1003D000400101EA50004FEA9059B9F1010F00DDE8
:1003E000B9460A9850EA4A000ED044F61050A5F2D9
:1003F000FF3545432F14B8F1000F1ED07542291E5A
:100400001EDDC9F100021CE0B8F1010F4FF0000041
:1004100001D0302103E0F24305E02154401CB042FA
:10042000FBDB30460022002121540B99C1F80880E3
:10043000C1E900200FB0BDE8F08FBD1B6D1CDEE7E9
:100440004A4600DA694206A800F05CFA06AB93E877
:10045000070003AB83E8070050460A9902F0CFFA81
:100460008DE80700A0F500501F3800900398002D7C
:100470000ADD42F21F014A460844002303A9039003
:10048000684602F039FD09E0A0F500504A461F38E1
:10049000002303A90390684602F043FD8DE807009E
:1004A0000004000C03D04FF0FF30410800E010467C
:1004B000B8F1000F03D00022009215461EE0751E11
:1004C00005D400F099F9303262556D1EF9D5B34666
:1004D0000122084302D000227F1C04E0207830284B
:1004E00001D100227F1E002A099784D01DE0112D22
:1004F00007DA00F081F9303262556D1C50EA0102D2
:10050000F5D1084302D00098C8B10EE00021681E62
:1005100005E0235C625C63542254401E491C814206
:10052000F7DBAB46A81B401E0990002004F80B0027
:100530000B98099AC0F80880C0E9002B7AE71126C9
:100540004FF0000857E72DE9F04F88460446D21DCA
:1005500022F0070191B0D1E90001CDE90A0102F0D2
:1005600017FE02460B98C00F01D02D2007E020682F
:10057000810701D52B2002E0202101EAC000032AD7
:10058000099001D0072A05DB03464146204600F0CA
:1005900079F90BE12078800601D5E06900E00620BA
:1005A000B8F1650F814606D0B8F1660F18D0B8F1E2
:1005B000670F70D131E00020B9F1110F009001DB1D
:1005C000112301E009F101030AAA01A90CA8FFF710
:1005D000E2FEDDE90C70002609F10105834647E0E3
:1005E00001204B4600904FF000470AAA01A90CA831
:1005F000FFF7D1FEDDE90DB00C995D46002610B97C
:1006000009F101000D18B9EB050003D4C0F1FF3664
:1006100009F10105A5EB09002BE0B9F1010F01DAA1
:100620004FF001090020B9F1110F0090484601DD9B
:10063000112300E003460AAA01A90CA8FFF7ABFEAC
:10064000DDE90C704D4600268346207800070AD469
:10065000AB4500DA5D4601A8012D04DD411911F812
:10066000011C302907D04F4502DA17F1040F04DAD4
:10067000012082460FE06D1EEEE7002F02DCED1B2D
:100680003E4403E0781CA84200DD7D1CB81B00F14D
:10069000010A4FF000472078000703D4AA4501DB88
:1006A0004FF0FF3A0021B7F1004F0DF143088DF8EC
:1006B000431024D002202B23002F01DA7F422D2368
:1006C0000A21021EA0F1010000DC5FB197FBF1FCE2
:1006D00097FBF1F201FB1C7C17460CF1300C08F87B
:1006E00001CDEEE7A8F1010003702188090501D5CD
:1006F000452100E06521A0F1010800F8011C0998DE
:100700000FA9A1EB0807FF1D00B10120411901EB62
:10071000EA70A1693844081A401EA0612078C0061A
:1007200002D42046AFF30080099828B1D4E9012112
:100730009047206A401C20622078C00622D52046BF
:10074000AFF300801EE0002E04DBB34502DD01A8FC
:10075000805D00E03020D4E901219047206A401CF0
:100760002062761CAAF101005FEA000A0AD100F0BB
:100770003FF8C0680168405CD4E901219047206AD5
:10078000401C2062281EA5F10105DCDC07E0D4E94D
:10079000012118F8010B9047206A401C2062381E86
:1007A000A7F10107F3DC2046AFF30080032011B06E
:1007B00041E6000001694A1C02610878704700B5F3
:1007C0008FB0CDE901310021059105497944CDE98A
:1007D000031011466846FFF72DFD0FB000BD000065
:1007E000E5FFFFFF0A6802F8010B0A60704700008E
:1007F000004870474000002030B5B0F10A0271F1A6
:1008000000034FEA900E4EEA817EB0EB0E0061EBE2
:1008100091014FEA101E4EEA017E10EB0E0041EBF3
:1008200011114FEA102E4EEA016E10EB0E0041EB53
:1008300011214FEA104E4EEA014E10EB0E0041EB33
:100840001141401841F100014FEAD00040EA4170E7
:100850004FEAD1014FEA810444EA907410EB80051D
:1008600044EB01046D1944EB0404521BA3414FF007
:10087000000348BF0A3200D530BD401C41F10001E1
:1008800030BD00002DE9F0411F46044603260168F3
:10089000072A01F4006004DB08B116A505E016A5DF
:1008A00003E008B115A500E015A521F010002060B7
:1008B000A069C01EA0610FB1401EA0612046AFF329
:1008C00000804FB1D4E9012138469047206A401C8E
:1008D0002062C01C206206E0206AFAE7D4E9012108
:1008E00015F8010B9047761EF8D22046AFF3008032
:1008F000BDE8F0814E414E006E616E00494E4600EB
:10090000696E66002DE9F047814616468AB0354883
:1009100078440DC88DE80D0032487844801C03AC43
:100920000DC884E80D0041F69B300844372190FB48
:10093000F1F290FBF1F5A5F1800501FB12041B3CDF
:1009400002D56442012000E00020DFF898A0804634
:100950000027FA44AAF1BE0A0EE0E0070AD03246A8
:10096000684607EB470101230AEB810102F0D9FA3F
:100970008DE8070064107F1C002CEED1194F7F44D6
:10098000AE3F19E0E80715D007EB04100DF1180A87
:1009900090E80E008AE80E00C068F04201D1981974
:1009A00008903246012306A903A802F0BAFA03AB65
:1009B00083E807006D10641C002DE3D14FF00103A4
:1009C00032466946B8F1000F03A802D002F094FA4B
:1009D00001E002F0A6FAC9E90001C9F808200AB04E
:1009E000BDE8F087D82D00000048704720000020A7
:1009F0007546FFF7F9FFAE4605006946534620F0FD
:100A00000700854618B020B5FFF7EEFBBDE8204093
:100A10004FF000064FF000074FF000084FF0000BBA
:100A2000AC46ACE8C009ACE8C009ACE8C009ACE829
:100A3000C00921F007018D46704710B50446AFF399
:100A400000802046BDE81040FFF7BABB4FF0013CE4
:100A500050F8042B51F8043B9A4221D1A2EB0C032D
:100A6000934313EACC1317D150F8042B51F8043BED
:100A70009A4215D1A2EB0C03934313EACC130BD18A
:100A800050F8042B51F8043B9A4209D1A2EB0C0315
:100A9000934313EACC13DBD04FF00000704700BF44
:100AA000D01A01BAB1FA81F101F0180122FA01F06D
:100AB000CB40DBB2C0B2C01AC1F120012CFA01F365
:100AC000D11A914311EAC311E6D1704701491820A8
:100AD000ABBEFEE72600020070470000FEE7000004
:100AE00070B540F20800C2F20000056840F2100044
:100AF000C2F20000066840F6004430464FF0404124
:100B0000C4F2010402F0A8FB0146284602F022FCD0
:100B100058B930464FF0804102F09EFB014628460E
:100B200002F01FFC30B9002200E001222046202103
:100B300000F048F940F20400C2F20000056840F2FB
:100B40000C00C2F2000006684FF04041304602F04F
:100B500083FB0146284602F0FDFB68B930464FF0A2
:100B6000804102F079FB0146284602F0FAFB00289A
:100B700018BF70BD002200E0012220461021BDE810
:100B8000704000F01FB9000070470000B0B5044687
:100B900000F01EF9054640F21400C2F20000007891
:100BA000611C18BF044400BF00F012F9401BA042B2
:100BB000FAD3B0BD2DE9F04F82B00E68002E00F0E0
:100BC000F78041F20042C4F20102042340F2004ED9
:100BD000904208BF03234FF6FF7CC4F2010E00933E
:100BE00000240123C1F2100C4FF0000A4FF000095D
:100BF0004AE041F20002C4F20102009F904208BFA5
:100C0000022704F00C030F229A402BEA020207FA93
:100C100003F34FEA9A051A4346F825204E6840F23E
:100C20000C45F202DEF8082054BF22EA080242EA2C
:100C30000802C4F20105CEF808202A68B30254BFA6
:100C400022EA080242EA08022A60B303DEF804201E
:100C500054BF22EA080242EA0802F303CEF8042055
:100C6000DEF800204FF0010354BF22EA080242EAF6
:100C70000802CEF800200E680AF1010A36FA0AF2DC
:100C800004F1040400F0948003FA0AFB16EA0B084E
:100C9000F1D04E68664511DC122E51D8DFE806F01F
:100CA000340A4946505050505050505050505050B7
:100CB00050424D00D1F80C9042E000BF4FF6FF7259
:100CC000C1F2210296420FDC0022C1F211029642CB
:100CD0001AD00022C1F21202964215D00022C1F2AF
:100CE0002102964210D02BE00022C1F2220296424D
:100CF0000AD00022C1F23102964205D00022C1F290
:100D0000320296421CD100BF8A6842B1012A14BF48
:100D1000C0F814B0C0F810B04FF0080910E04FF060
:100D200004090DE0CA6802F1040909E04FF0000966
:100D300006E0CA6802F1080902E0CA6802F10C097B
:100D400002462646B8F5807F24BF0432203E17684D
:100D50000F25B54027EA050509FA06F63543156063
:100D6000CA79D2067FF587AF41F21803C4F20203B5
:100D70001A68AEF57E7642F001021A601A6802F037
:100D800001020192019A2AF0030256F802B040F6DD
:100D90000002C4F20102904208D040F60042C4F2C0
:100DA000010290427FF425AF01272AE7002728E7B8
:100DB00002B0BDE8F08F00008068084018BF012035
:100DC00070470000002A08BF090401617047000055
:100DD00040F2C010C2F2000000687047002804BF53
:100DE00001207047F0B581B0044690F83D0028B965
:100DF000002084F83C00204600F050FA242084F8BB
:100E00003D002068016821F001010160016841F4A2
:100E100000410160016821F40041016000F0F4FB31
:100E2000636848F2A16CC0F2010C40F60011C0F2F8
:100E30003D0163453CBF48F28041C0F21E0188423B
:100E400002D2012001B0F0BD4DF68361C4F21B3126
:100E5000A0FB01122168970CD1F804E04FF49676BC
:100E60002EF03F0545EA92454D60774348F6381627
:100E70000D6AC0F24106A7FB067625F03F076345E1
:100E800038BF960C721C3A430A62CA6948F2A066DF
:100E90004CF6FF77C0F20106B34222EA070C0AD8EB
:100EA00001385A00B0FBF2F001306FF31F30042814
:100EB00098BF042020E0A2681927002A08BF032752
:100EC00001385F43B0FBF7F701373F0509D052B156
:100ED00019225A43B0FBF2F00422013062F31F30B2
:100EE00008E0012008E003EB4302B0FBF2F0013020
:100EF0006FF31F3040F4004040EA0C00C8610868FE
:100F0000D4E9072320F0C000104318430860886824
:100F100048F2FF3204F10C0790438CCF1843104382
:100F2000A6698860C86820F0FF0038433043C86075
:100F3000086840F00100086000202021206484F847
:100F40003D10206384F83E0001B0F0BD2DE9F0476C
:100F500082B09946924688460446FFF739FF94F8D6
:100F60003D10202909D105462068806910F0020053
:100F700008D194F83C00012828D10226304602B05E
:100F8000BDE8F087012686EA500706E02068806900
:100F900010F0020086EA5007EBD0FFF719FF401B64
:100FA0001A28F3D3206880698007EFD5002020211C
:100FB000206384F83D1084F83E00216C41F020014C
:100FC0002164F90784F83C00D3D1D6E701212068D9
:100FD00084F83C100168C90703D1016841F00101A0
:100FE0000160016821F400610160212184F83D1055
:100FF000102184F83E1000212164C4F824A0A4F834
:101000002A90618D21850021CFF6FF71E162E16AAE
:1010100011F5803F18BF012924D1016841F4807186
:1010200001604069DDF8289010F0010037D180F0B0
:10103000010609F101070AE020684169C90717D0D4
:101040002068406910F0010080F0010627D1002FD0
:10105000F6D0FFF7BDFEB9F1000FEDD0401B4845BB
:10106000EED9E9E70829D8D0216B1229D5D0D8E7E5
:1010700000212022216384F83D2084F83E10226C58
:1010800042F020022264F20784F83C1007D0006886
:101090000126C00544BF4FF4007020646EE720694C
:1010A000B0F5804F01D1FE2125E0062000EAD811DD
:1010B0002068F0310161416909071BD44169490584
:1010C0003BD409F1010600BF66B1FFF781FEB9F11B
:1010D000000F02D0401B484504D920684069000732
:1010E00040F1D18020684169090703D4416949056D
:1010F000EAD522E0FF21206801EA08010161416987
:10110000890730D44169490517D409F1010600BFA8
:1011100066B1FFF75DFEB9F1000F02D0401B4845F4
:1011200004D920684069800740F1AD80206841699A
:10113000890718D441694905EAD5016841F400716D
:1011400001606FF48061416100202021206384F8F8
:101150003D1084F83E00216C41F00401216484F8C4
:101160003C0001260AE700260196206841690191AA
:10117000806901900198208D002859D009F101075C
:1011800004E000BF20684069000663D5206850F87D
:10119000141F09060DD40168490556D4002FF5D057
:1011A000FFF716FEB9F1000FECD0401B4845EDD912
:1011B000E8E7D4F824E02268704610F8013B136198
:1011C0006062608D01386085B4F828C01046ACF1CB
:1011D0000103238550F8141F49070DD519040BD0BE
:1011E0009EF8011011610EF102016162618D0139F9
:1011F0006185ACF102012185016806E02068406943
:10120000400727D5206850F8141F49070DD40168FE
:1012100049051AD4002FF5D0FFF7DAFDB9F1000F18
:10122000ECD0401B4845EDD9E8E7208D0028ADD132
:101230002068016841F400710160202084F83D00BD
:1012400084F83E6084F83C6098E66FF48061016049
:10125000042000E0202000212022216384F83D208A
:1012600084F83E10226C1043206484F83C10206CFB
:10127000042806D120680126016841F4007101604C
:101280007CE601267AE600202021206384F83D10C8
:1012900084F83E00216C41F020015FE710B586B074
:1012A000016845F20040C4F2000081424FF00001A5
:1012B000CDE90411CDE9021101D006B010BD41F213
:1012C0001804C4F20204216800F5384041F0080116
:1012D0002160216801F0080101910199C02102916A
:1012E000122103910321059102A9FFF763FC6068B5
:1012F00040F400106060606800F4001001900198F4
:1013000006B010BD40F2140040F2C011C2F200005D
:10131000C2F2000100780A681044086070470000BB
:1013200080B542F20000C4F20200016841F01001F1
:101330000160032000F07EF80F2000F005F800F0B7
:101340002BF8002080BD0000B0B540F21402C2F2BC
:10135000000240F200011278C2F200014FF47A73E9
:101360000968B3FBF2F20446B1FBF2F1084600F063
:1013700085FB0F2C4FF001050CD858B94FF0FF300A
:1013800021460022002500F029F840F21800C2F2A0
:10139000000004602846B0BD82B041F21800C4F2DB
:1013A00002000168022241F001010160016801F0C0
:1013B000010101910199416841F08051416040680B
:1013C00000F08050009000980420C4F201000168F1
:1013D00062F31A61016002B07047000010B54EF66A
:1013E0000C5CCEF2000CDCF80030C3F3022E8EF061
:1013F0000704042C28BF0424BEF103034FF0FF3E72
:101400000EFA04F438BF0023A14399400EFA03F307
:101410009A43114300F1604200F00F03090102F505
:101420006442043B6344002848BF03F10C0211707E
:1014300010BD00004EF60C51CEF200010A684FF6C6
:10144000FF031A4060F30A2242F0806040F0FD7012
:1014500008607047002804BF012070472DE9F04361
:1014600081B042F20008C4F202080446D8F8000035
:101470000D4600F0070081420CD9D8F8000020F09A
:1014800007002843C8F80000D8F8000000F0070063
:10149000A8426BD1206841F204098107C4F2020915
:1014A00017D5410705D5D9F8001041F4E061C9F816
:1014B0000010010705D5D9F8001041F46051C9F8B2
:1014C0000010D9F80010A26821F0F0011143C9F80A
:1014D0000010C00741D1D8F8000000F00700854295
:1014E0000CD2D8F8000020F007002843C8F800000C
:1014F000D8F8000000F00700A84237D12068410763
:1015000007D5D9F80010E26821F4E0611143C9F869
:101510000010000708D5D9F80000216920F46050B8
:1015200040EAC100C9F80000D9F8002002F00C0020
:10153000082841F20020C0F27A0049D143F21E731C
:10154000C2F38341C0F60003595CD20334D440F6A1
:101550000010C0F23D0048433AE0606859F8041CAE
:10156000022807D0012824D1890305D4012001B025
:10157000BDE8F0838901F9D5D9F8001021F0030105
:101580000843C9F80000FFF723FC064641F28837FC
:10159000D9F80000616800F00C00B0EB810F9AD020
:1015A000FFF716FC801BB842F2D9032001B0BDE85A
:1015B000F0838907DAD5DFE7D9F8002043F21C73FE
:1015C000C2F34042C0F600039A5C4843B0FBF2F01D
:1015D000D9F8001043F20472C1F30311C0F60002FF
:1015E000515C40F2000220FA01F140F21800C2F210
:1015F00000000068C2F200021160FFF7A5FE0020A3
:1016000001B0BDE8F083000040F2000041F20401A7
:10161000C2F20000C4F202010068096843F21472C9
:10162000C1F30221C0F60002515CC84070470000BF
:10163000002804BF012070472DE9F04182B0044624
:10164000007841F20006C007C4F2020647D0706875
:1016500000F00C00042808D1306880033FD5606892
:10166000E8BB012002B0BDE8F081706800F00C001A
:10167000082802D17068C003EED4656830682DB1C7
:10168000B5F5A02F09D0B5F5803F0AD020F4803001
:101690003060306820F4802005E040F48020306025
:1016A000306840F480303060FFF792FB002D054633
:1016B00012D000BF3068800311D4FFF789FB401BB4
:1016C0006428F7D916E100BFFFF782FB401B6428AE
:1016D0004FF0030000F2D88030688003F4D4207803
:1016E000800719D5706810F00C0F07D0706800F0F3
:1016F0000C00082827D17068C00324D43068800704
:1017000003D52069012840F0A6803068616920F087
:10171000F80040EAC1003060207800074ED5A0698B
:1017200038B30020C4F242200121C0F88014FFF732
:101730004FFB0546706A80072DD4FFF749FB401B1D
:101740000228F7D9D6E02069002840F20000C4F250
:10175000422000F0A88001210160FFF739FB054617
:1017600030688007D1D4FFF733FB401B0228F7D93C
:10177000C0E00020C4F242200021C0F88014FFF72E
:1017800027FB0546706A800718D5FFF721FB401B31
:101790000228F7D9AEE040F20000C2F20000006873
:1017A00044F6D351C1F26201A0FB0101480A019045
:1017B00000BF0198411E00280191F9D1207840070F
:1017C00017D4E5698DB1706800F00C00082846D187
:1017D000012D40D07068216A00F480328A423AD1EB
:1017E000616A00F47010884235D1002002B0BDE873
:1017F000F081F0695FEAC00808D4F06940F08050D9
:10180000F061F06900F080500090009847F2000706
:10181000C4F200073868C0050FD4386840F48070FF
:101820003860FFF7D5FA05463868C00505D4FFF7DC
:10183000CFFA401B6428F7D95CE0E568306A1DB137
:10184000052D41D0012D43D020F001003062306AD7
:1018500020F004003EE0012002B0BDE8F081002746
:10186000C4F2422700203866FFF7B2FA022D05467F
:101870000ED100BF3068800153D5FFF7A9FA401B95
:1018800002284FF00300F5D902B0BDE8F08100BF97
:1018900030688001A9D5FFF79BFA401B02284FF062
:1018A0000300F5D9F0E700210160FFF791FA054642
:1018B000306880077FF530AFFFF78AFA401B0228B7
:1018C0004FF00300F4D9DFE740F004003062306AE3
:1018D00040F001003062FFF77BFA002D054641F22F
:1018E000883712D0306A800712D4FFF771FA401B94
:1018F000B842F7D9032002B0BDE8F081FFF768FADB
:10190000401BB8424FF00300BED8306A8007F5D4C0
:10191000B8F1000F3FF555AFF06920F08050F0614D
:101920004FE7206AB0F5803F05D17168A26821F4C5
:101930000031114371607168626A21F474111143BE
:101940000843706001203866FFF742FA044600BF82
:10195000306880013FF549AFFFF73AFA001B0228D3
:101960004FF00300F4D98FE770B528B1416A29B16F
:1019700000210161142106E0012070BD4168B1F52C
:10198000827F02D01C21002242500026866290F8FD
:10199000511029B980F85060054600F039F8284602
:1019A000022180F8511090E82E0002F482720C6837
:1019B00003F4044324F040040C601A4405F400636B
:1019C00005691A4405F0020345691A4405F001034C
:1019D0008569C4691A4405F400731A4404F0380395
:1019E000046A1A4404F08003846A1A4304F400531E
:1019F0001A430A60042202EA15424A60CA6922F4C4
:101A00000062CA610121466580F85110304670BD00
:101A100080B586B0014640F60000C4F201000968B6
:101A200000F5205291424FF00001CDE90411CDE9BB
:101A3000021101D006B080BD41F21801C4F20201CA
:101A40000A6842F480520A600A6802F480520192E5
:101A5000019A0A6842F004020A60096801F0040170
:101A600001910199A0210291022103910321059185
:101A700002A9FFF79FF806B080BD0000411E0020BC
:101A8000B0EB116F1CBF012070474EF21002CEF276
:101A9000000251604EF62351CEF20001F0230B708C
:101AA000072190601160704790F83C20012A4FF0A8
:101AB000020234D010B5012380F83C3080F83D207C
:101AC0000268D2F804E0D2F808C00C682EF0700367
:101AD000234340F2FF74C4F20004A242536005DCC9
:101AE000B2F1804F0ED040F2004307E042F60043CF
:101AF000C4F201039A4205D040F60003C4F2000389
:101B00009A4204D149682CF0800319439160012165
:101B1000002280F83D1080F83C20BDE810401046BF
:101B200070470000002804BF0120704710B590F8EE
:101B30003D1031B9002180F83C10044600F066F8F1
:101B40002046022180F83D10016840F2FF740B68C6
:101B5000C4F2000442F6004CA142C4F2010C05DCC0
:101B6000B1F1804F0AD040F2004203E0614505D058
:101B700040F60002C4F20002914203D1826823F0D1
:101B800070031343A14205DCB1F1804F0AD040F24B
:101B9000004203E0614505D040F60002C4F20002B5
:101BA000914203D1026923F440731343846923F003
:101BB0008002D0F804E0C368224361450A60CB622A
:101BC000C1F828E002D14269CCF8302001224A61F4
:101BD0000B69DB0703D00B6923F001030B6180F86D
:101BE000462080F83E2080F83F2080F8402080F892
:101BF000412080F8422080F8432080F8442080F87B
:101C0000452080F83D20002010BD00000068B0F1A4
:101C1000804F18BF704781B041F21C00C4F202002F
:101C2000016841F001010160006800F001000090CE
:101C3000009801B07047000090F83D1001291CBFCA
:101C400001207047022180F83D10006840F2FF71CA
:101C5000C4F20001884205DCB0F1804F0ED040F2A2
:101C6000004107E042F60041C4F20101884205D07C
:101C700040F60001C4F20001884206D1816801F0FB
:101C80000701062904BF00207047016841F00101E7
:101C900001600020704700000146006841F2111306
:101CA000026A1A4208D1026A40F244431A4203D13E
:101CB000026822F0010202600122002081F83D202A
:101CC0007047000090F83C20012A4FF002026ED0CD
:101CD00080B5012380F83C3080F83D20D0F800C06A
:101CE0004FF67772DCF8083023EA0202CCF80820BD
:101CF0000B684F2B28DC1F2B44DD202B45D0302BCD
:101D000043D0402B40F0AC80D1F804E0C968DCF847
:101D10002030DCF8202022F00102CCF82020DCF872
:101D2000182022F0F00242EA011123F00A0242EAEE
:101D30000E02CCF81810CCF82020DCF8081041F086
:101D4000470121F0300127E06F2B32DDB3F5005F52
:101D500073D0B3F5805F21D0702B40F08180D1E942
:101D600001E3C968DCF8082043EA0E0322F47F424D
:101D700043EA01211143CCF80810DCF8081041F0C7
:101D8000770109E00BB1102B6AD1DCF8081021F0C3
:101D90007001194341F00701CCF80810002201211D
:101DA00080F83D10002180F83C10BDE880401046CE
:101DB0007047502B21D0602B52D1D1F804E0C96874
:101DC000DCF82030DCF8202022F01002CCF82020B3
:101DD000DCF8182022F4704242EA013123F0A0021C
:101DE00042EA0E12CCF81810CCF82020DCF80810CB
:101DF00041F0670121F01001CEE7D1F804E0C96895
:101E0000DCF82030DCF8202022F00102CCF8202081
:101E1000DCF8182022F0F00242EA011123F00A0255
:101E200042EA0E02CCF81810CCF82020DCF808109A
:101E300041F0570121F02001AEE7D1E901E3C96883
:101E4000DCF8082043EA0E0322F47F4243EA012132
:101E50001143CCF80810DCF8081041F480419BE7EE
:101E600001229CE7F0B581B040F60044C4F20104C1
:101E700020464FF40061FEF79FFF40F29406C2F245
:101E80000006C0B9FEF7A4FF40F29C15C2F200059F
:101E90002968401AC9280ED3FEF79AFF31682860D6
:101EA000481C0229C8BF0020306040F2A810C2F2CE
:101EB000000000F05FFA306803284DD0022840F09F
:101EC000968020460221FEF777FF00BBFEF780FFD9
:101ED00040F29C15C2F200052968401AC92816D3A1
:101EE000FEF776FF40F21007C2F20007396828605B
:101EF00008464FF07C5101F0AFF90025C4F24825A7
:101F00002946386001F026FA002808BF3D602046C7
:101F10004FF48061FEF750FF002868D1FEF758FFAC
:101F200040F29C17C2F200073968401AC9285ED3F4
:101F3000FEF74EFF40F21005C2F200052968386036
:101F400008464FF03F4101F087F90021286001F079
:101F500008FA002849D14AE020460221FEF72CFF6A
:101F600000BBFEF735FF40F29C15C2F20005296860
:101F7000401AC92816D3FEF72BFF40F20C07C2F215
:101F800000073968286008464FF07E5101F064F977
:101F90000025C4F2C8252946386001F0DBF9002885
:101FA00008BF3D6020464FF48061FEF705FFF0B9A1
:101FB000FEF70EFF40F29C17C2F200073968401A84
:101FC000C92814D3FEF704FF40F20C05C2F2000545
:101FD0002A6800213860CBF68071104601F03CF988
:101FE0000021286001F0AFF908B9002028603068AE
:101FF00020F0010002281CD120460121FEF7DCFE62
:10200000B8B9FEF7E5FE40F29C14C2F20004216864
:10201000401AC9280DD3FEF7DBFE2060002140F2F4
:10202000A810C2F20000316001B0BDE8F04000F03D
:10203000A1B901B0F0BD00002DE9F04381B0FEF779
:10204000C7FE40F2B111C2F200010A78044632B96B
:1020500040F2B410C2F2000004600120087040F2A7
:10206000B016C2F20006307820BB40F2B410C2F2C3
:102070000000006844F62061201A88421AD301202B
:10208000307040F2B810C2F200000021016040F24E
:10209000B210C2F20000017040F2A410C2F20000BF
:1020A000046040F60040C4F201004FF48071002249
:1020B000FEF788FE3078002842D040F2A410C2F229
:1020C00000000168611A05293AD340F2B217C2F242
:1020D000000740F600483978C4F2010840F2B8150C
:1020E00004600029C2F2000540464FF4807107D019
:1020F00000224FF00009FEF765FE87F8009009E026
:1021000001224FF00109FEF75DFE286887F8009074
:10211000013028602868B0F5487F11D340F2B41030
:102120000023C2F20000337004602B6040464FF47D
:10213000807100223B7001B0BDE8F043FEF742BE63
:1021400001B0BDE8F0830000FEE70000FEE70000FC
:10215000FEE700007047000070470000FFF7D2B8AC
:102160007047000040F29400C2F2000000680328AB
:1021700088BF70472DE9F04383B0DFE800F002909C
:102180004B6C40F2A818C2F2000840460021002221
:1021900000F018F940F20800C2F20000006801F0F7
:1021A0002FF8814640F20400C2F2000000680F469A
:1021B00001F026F840F28004C2F2000405460E4603
:1021C0005FA120464A463B46CDE90056FEF71EF881
:1021D0004046214600F0B0F940460021012200F0BF
:1021E000F1F840F21000C2F20000006801F008F8B7
:1021F000804640F20C00C2F2000000680E4600F07B
:10220000FFFF07460D4653A1204642463346CDE91F
:10221000007541E040F2A814C2F2000420460021FB
:10222000002200F0CFF834A1204600F085F92046C6
:102230000021012200F0C6F840F21000C2F20000B6
:10224000006800F0DDFF40F2800402460B46C2F257
:1022500000042DA11FE040F2A814C2F200042046A1
:102260000021002200F0AEF81BA1204600F064F926
:1022700020460021012200F0A5F840F20C00C2F235
:102280000000006800F0BCFF40F2800402460B46EC
:10229000C2F2000414A12046FDF7B8FF12E040F29C
:1022A000A814C2F2000420460021002200F08AF89F
:1022B00019A1204600F040F920460021012200F03B
:1022C00081F81AA440F2A810C2F20000214603B01F
:1022D000BDE8F04300F030B95365742048756D696E
:1022E00064697479000000003E3E20252E3166208E
:1022F0002525203C3C0000005365742054656D701A
:1023000065726174757265003E3E20252E3166202F
:1023100043203C3C00000000446174653A202020CA
:10232000202020202020202000000000312F3132EA
:102330002F32303235204D6F6E20202000000000FB
:102340004375723A20252E3166432F252E3166259E
:10235000250000005365743A20252E3166432F2551
:102360002E31662525000000FEE700008160026036
:10237000838070472DE9F04184B0044648F68C0212
:10238000C0F60C020068217902924FF0640802AA9C
:102390000423CDF80080FEF7D9FD42F62D16502714
:1023A000C0F60D1603AD00BF206821792A4604232C
:1023B0000396CDF80080FEF7C9FD013FF4D104B0CB
:1023C000BDE8F081032A88BF7047DFE802F0020A07
:1023D00006086FF07F02514004E06C3902E02C39AE
:1023E00000E0403980B582B021F00F02090102F10E
:1023F0000C0308328DF804308DF8052001F10C0231
:1024000003688DF8062001F1080201798DF8072094
:102410004FF0640C01AA18460423CDF800C0FEF763
:1024200095FD02B0BDE880407047000070B582B0F5
:1024300004463220FEF7AAFB43F63C0620682179C9
:10244000C0F60C06642501AA042301960095FEF748
:102450007DFD0520FEF79AFB2068217901AA04235F
:1024600001960095FEF772FD0120FEF78FFB2068B4
:10247000217901AA042301960095FEF767FD0A2041
:10248000FEF784FB42F62C02C0F60C02206821798C
:10249000019201AA04230095FEF758FD0A20FEF7D9
:1024A00075FB42F62C02C8F68C0220682179019255
:1024B00001AA04230095FEF749FD0120FEF766FB03
:1024C00040F60C02C8F68C0220682179019201AA1C
:1024D00004230095FEF73AFD0120FEF757FB40F676
:1024E0000C02C1F61C0220682179019201AA042382
:1024F0000095FEF72BFD0220FEF748FB40F60C028C
:10250000C6F66C0220682179019201AA0423009585
:10251000FEF71CFD0120FEF739FB40F60C02CCF65D
:10252000CC0220682179019201AA04230095FEF7CC
:102530000DFD02B070BD00000A78002A08BF704788
:10254000F0B583B004464E1E642702AD22F00F00A2
:10255000110100F10D0209308DF8090001F10D00A3
:102560008DF808208DF80A0001F109022068217910
:102570008DF80B202A4604230097FEF7E7FCB2787B
:102580000136002AE2D103B0BDE8F04070470000F8
:1025900090B0FEF7C5FE06AC20462821FDF7D1FE1F
:1025A000012006900A904FF4E01000254FF480318E
:1025B00002260F9020460495CDE90255CDE900553D
:1025C000CDE90715CDE90D61FFF732F818B1EFF34A
:1025D000108072B6FEE70F20CDE900064FF4806050
:1025E000CDE90305684602210295FEF733FF20B1CD
:1025F000EFF3108072B600BFFEE7002741F218002B
:10260000CDE90877CDE90677C4F20200016840F60B
:10261000000841F0200101600168C4F2010801F0E6
:102620002001009100990168002241F0040101603D
:102630000168102401F0040100910099016841F043
:10264000080101600068102100F008000090009867
:102650004046FEF7B7FB08F5806528464FF49871B1
:1026600000224FF49879FEF7ADFB042006AECDE9C9
:102670000607404631460897FEF79CFA0694012467
:102680004FF0030A40463146CDE90747CDF824A074
:10269000FEF790FA40F60340CDE90607284631469A
:1026A0000894FEF787FA28463146CDE90694CDE92D
:1026B000087AFEF77FFAC0200690122007A981E869
:1026C000110428463146FEF775FA40F2A805A8F530
:1026D0003440C2F2000548F2A061C0F201014FF49B
:1026E000804285E883002846C5E90372C5E905777D
:1026F000C5E90777FEF772FB18B1EFF3108072B6E9
:10270000FEE740F2FC0008F52051C2F200004FF451
:1027100082724FF400434FF40076382480E88E0034
:1027200080210A22C0E90477C0E90664C0E90817DD
:10273000C0E90A72FFF718F918B1EFF3108072B60A
:10274000FEE740F254100021C2F200004FF0804238
:1027500047234FF6FE77CDE90811CDE90611CDE903
:102760000011C0E90023C0E9021701618161FFF790
:10277000D9F920B1EFF3108072B600BFFEE74FF435
:102780008050069040F25410C2F2000006A9FFF7F4
:1027900099FA20B1EFF3108072B600BFFEE7202057
:1027A00000900020019040F25410C2F200006946EF
:1027B000FFF77AF918B1EFF3108072B6FEE740F236
:1027C000A816C2F200064E20307130463560FFF781
:1027D0002DFE3046FFF7CEFD27A13046FFF7ACFEB9
:1027E0004FF47A70FEF7D2F940F29805C2F2000574
:1027F00040F25411C2F20001284642460423FFF77A
:10280000B5FD40F2A01640F2BC1740F2080840F2B5
:1028100004094FF47A70C2F20006C2F20007C2F255
:102820000008C2F2000908E0FFF706FCFEF758F9BD
:10283000FFF718FBFFF796FC0120FEF7A7F9FEF75C
:10284000C7FA3168401AB0F5FA6FEDD3FEF7C0FA57
:102850003060284600F018F801283870E4D1287B51
:102860006C7B00F0C5FDC8F80000204600F0C0FDFC
:10287000C9F80000D8E700BF53797374656D205222
:1028800065616479210000002DE9F0418AB00446B9
:102890008088002600900120029601902068032580
:1028A00069460395FEF786F92068A1880022FEF7A5
:1028B00089FA1220FEF76AF9EFF3108072B6A06869
:1028C000FFF7BAF9A0880395CDE9000620686D46A8
:1028D00029460296FEF76EF9A0680068466200BFBE
:1028E0002068A188FEF768FAA1680128096806D166
:1028F000486A80B2B0F5FA7FF2D962B67BE0002078
:10290000486200BF2068A188FEF756FAA1680968EE
:102910004A6A28B990B2B0F5FA7FF3D962B66AE094
:10292000002048622068A188FEF746FAA1680128C5
:102930000968496A05D188B2B0F5FA7FF2D962B662
:1029400059E04FF0000800270026A0680068C0F892
:10295000248000BF2068A188FEF72EFAA1680968CC
:1029600028B9486A80B2B0F5FA7FF3D940E0C1F8DF
:10297000248000BF2068A188FEF71EFAA168012804
:102980000968496A88B203D1B0F5FA7FF2D931E01B
:10299000A0F115013D38132838BF0126092938BF99
:1029A0000026EE550137282FCFD1A068FFF774F924
:1029B000691E0023082262B611F8010F013A18447B
:1029C0004FEA4003F8D105F10F010023082211F866
:1029D000017F013A1F444FEA4703F8D100F07F001E
:1029E00007F07F012173607301200AB0BDE8F08118
:1029F00062B600E062B600200AB0BDE8F0815FEA8E
:102A0000400C08BF91F0000F4FEA8C234FEAC1221F
:102A100043EA51514FEA1C5018BF00F5F0404FEA0D
:102A2000300018BF41F000415FEA6C5C00F0298083
:102A3000BCF1FF3F08BF40F080407047130C06BF59
:102A400012044FF0100C4FF0000C130E04BF1202D2
:102A50000CF1080C130F04BF12010CF1040C930FBE
:102A600004BF92000CF1020CD30F04BF52000CF112
:102A7000010C11464FF00002A0F11F00A0EB0C006A
:102A8000704711F0004F08BF704731F000413FF42C
:102A9000D5AF0B0C06BF09044FF0100C4FF0000C23
:102AA0000B0E04BF09020CF1080C0B0F04BF090147
:102AB0000CF1040C8B0F04BF89000CF1020CCB0F3E
:102AC00004BF49000CF1010CCCF1200322FA03F3FE
:102AD00041EA030102FA0CF2A0EB0C0000F1010044
:102AE0007047000023F07F4720F07F4C80EA03000E
:102AF00000F00040ACEB070303F57C5303F1FF0348
:102B00002DE9804909B44FEA144324EA03484FEA07
:102B1000154B25EA0B4E0FF2042606EB13273E78E1
:102B200003FB0667C7F5000707FB06F64FEAD64624
:102B300006F102064FEA543707FB066CCCF1005C45
:102B40004FEA1C472CEA074C0CFB06F507FB06F482
:102B500004EB15464FEA961649085FEA320234BF85
:102B600000204FF000404FEAD13706FB07FC4FEA48
:102B70001C4C0CFB0BF7D21B03FB0CF761EB0701A2
:102B80000CFB0EF7B0EB074072EB17420CFB08F79B
:102B900034BFA2EB0742B2EB074261EB17414FEAA9
:102BA0000C444FEA910706FB07FC4FEA1C4C0CFB58
:102BB0000BF7B0EBC74072EB573203FB0CF734BF97
:102BC000A2EBC742B2EBC74261EB57310CFB0EF7E9
:102BD000B0EBC70072EB57720CFB08F734BFA2EBE7
:102BE000C702B2EBC70261EB57714FEA816141EA5C
:102BF00092114FEA826242EA90124FEA806004EB3F
:102C0000CC04039F4FEAD13706FB07FC4FEA1C4C6C
:102C10000CFB0BF7D21B03FB0CF761EB07010CFB62
:102C20000EF7B0EB074072EB17420CFB08F734BF0E
:102C3000A2EB0742B2EB074261EB17414FEA8C551A
:102C400004EB9C244FEA910706FB07FC4FEA1C4C5F
:102C50000CFB0BF7B0EBC74072EB573203FB0CF7E2
:102C600034BFA2EBC742B2EBC74261EB57310CFB5A
:102C70000EF7B0EBC70072EB57720CFB08F734BFCE
:102C8000A2EBC702B2EBC70261EB57714FEA816159
:102C900041EA92114FEA826242EA90124FEA806062
:102CA00015EB4C2544F100044FEAD13706FB07FC35
:102CB0004FEA1C4C0CFB0BF7D21B03FB0CF761EB30
:102CC00007010CFB0EF7B0EB074072EB17420CFB51
:102CD00008F734BFA2EB0742B2EB074261EB1741A2
:102CE0004FEA813141EA92414FEA823242EA904210
:102CF0004FEA80304FEA0C7615EB1C1544F10004C6
:102D000048EA03434EEA0B484FF0000EB2EB080CC2
:102D100071EB030724BF624639464EEB0E0E4FF0AF
:102D2000000B0018524149414BEB0B0BB2EB080C66
:102D300071EB03077BF1000B24BF624639464EEB73
:102D40000E0E4FF0000B0018524149414BEB0B0B9C
:102D5000B2EB080C71EB03077BF1000B24BF62465A
:102D600039464EEB0E0E51EA020718BF46F0010637
:102D700016EB0E7655F1000254F1000103D5BDE8C3
:102D80008901BDE80088BDE88901BDE80048B619A1
:102D9000524141EB0101A3F10103704780807F7E26
:102DA0007D7C7B7A797877767675747372717170C1
:102DB0006F6E6E6D6C6C6B6A6A6968686766666573
:102DC0006464636362616160605F5F5E5E5D5D5C01
:102DD0005C5B5B5A5A595958585757565655555572
:102DE0005454535352525251515050504F4F4F4ED2
:102DF0004E4D4D4D4C4C4C4B4B4B4A4A4A49494920
:102E00004848484747474746464645454544444461
:102E10004443434343424242424141419C46002B8A
:102E200030D477002BD04FEA37071CB503B44FF0EE
:102E300010004FF01001BAF1000F06D0BCF1000FE6
:102E4000DCBF40F0080040F008014FF000000FBC6C
:102E5000BDE810400BF1010BBBF1010F08BF5FEAA9
:102E6000170722BF12F1010211F101014FF00041D9
:102E700043F1000300F0004043EA00007047F9D33B
:102E80005708D0E746EA06464FEA164613F1400FC8
:102E90001FDD13F1200FDFBF16430A460021203348
:102EA0005B42BED0C3F1200746EA06464FEA16460B
:102EB00002FA07F746EA070622FA03F2C3F12007EF
:102EC00001FA07F742EA070221FA03F14FF0000383
:102ED000A7E746EA020646EA06464FEA164646EAEB
:102EE0000106BCBF46EA0646360C4FF000034FF021
:102EF00000024FF0000194E72DE9804C70B49A462F
:102F0000934691E8380007C831EA400C48BF34EADC
:102F1000430C03D5FFF7E6FDFFF780FFF0BCBDE8EB
:102F2000008C2DE9804C70B49A46934691E83800A5
:102F300007C810F0804F08BF13F0804F03D100F096
:102F400005F8FFF76BFFF0BCBDE8008C20F07F4771
:102F500023F07F4C80EA030000F0004007EB0C03F5
:102F6000A3F57C53A3F1FE0392F0000F00F0B380B1
:102F700095F0000F00F077802DE901494FEA1140EC
:102F800021EA00484FEA144624EA064700FB06FC03
:102F900008FB06F607FB08F818EB06484CEB164C46
:102FA00000FB07F718EB07484CEB17404FEA124BB2
:102FB00022EA0B4E4FEA154625EA06470BFB06FCB4
:102FC0000EFB06F607FB0EFE1EEB064E4CEB164CF8
:102FD0000BFB07F71EEB074E4CEB174B18EB0B08E0
:102FE00040F1000018EB0E0B58EB000840F1000018
:102FF0008F1A4FF000014FF000063CBFC943661B1B
:1030000014BFB5EB040C00213CBFC943F61B4FEACB
:10301000174427EA04454FEA1C472CEA074C04FBF7
:10302000076205FB07F70CFB05F616EB074642EBBC
:10303000174204FB0CFC16EB0C4642EB1C421BEB4C
:10304000060658EB020241414EEA8E0E46EA9E0603
:1030500001D5BDE80189B619524141EB0101A3F147
:103060000103BDE801894FEA144524EA05464FEA09
:10307000114721EA074C05FB07F406FB07F70CFB99
:1030800006F111EB074144EB174405FB0CFC11EB77
:103090000C4144EB1C444FEA124722EA074C05FB63
:1030A00007F206FB07F70CFB06F616EB074642EBAA
:1030B000174205FB0CFC16EB0C4642EB1C456A184C
:1030C00054F1000148BF7047B619524141EB01016C
:1030D000A3F10103704795F0000F37D04FEA11427A
:1030E00021EA02464FEA144724EA074C02FB07F1A3
:1030F00006FB07F70CFB06F414EB074441EB174102
:1031000002FB0CFC14EB0C4441EB1C414FEA15474D
:1031100025EA074C02FB07F506FB07F70CFB06F652
:1031200016EB074645EB174502FB0CFC16EB0C466D
:1031300045EB1C42121951F1000148BF7047B61906
:10314000524141EB0101A3F1010370474FEA1445DD
:1031500024EA05464FEA114721EA074C05FB07F12F
:1031600006FB07F70CFB06F212EB074241EB174197
:1031700005FB0CFC12EB0C4251EB1C414FF000061E
:1031800048BF7047921841EB0101A3F1010370475A
:10319000490050EAC12018BF04204A0D18BF40F072
:1031A000010040F2FF72B2EB515F08BF40F0020035
:1031B000012808BF0520704730380A2801D20120B5
:1031C000704700207047000010B500290AD0087829
:1031D000002807D005487844FDF738FC002801D0C6
:1031E000002010BD0248784410BD00007A050000A0
:1031F000720500000808A0F500114FEA3101704780
:1032000043004FEAD30C4FEA3C0C43401FBF40073A
:103210000CF1605113F0FE4F70471CF0006F03D1AA
:103220000CF00041002070470CF0004343EA50705E
:1032300040EACC0010B500F057F900BF0000009242
:103240004FEA0001FFF7D6BF4FF00041A1F5002182
:103250004FF000007047000090EA010F48BF81F076
:10326000004100F19481421A3CBF801A89184FEA4C
:10327000D052A2EBD1534FF07F4C1CEA410F18BF44
:103280009CEA026F00F03B804FF0004C4CEA0020BB
:103290004CEA012121FA03FC10EB0C0C1ED202F1C6
:1032A000FF325FEA1C2040EBC25038BF70471CF071
:1032B0007F0F4FEA400C18BFBCF17F4F38BF7047FB
:1032C000C3F12003994008BF20F00100BCF17F4FFB
:1032D00038BF7047A0F1C04000F04CB94FEA3C0045
:1032E000000A40EBC25028BF1CF0FF0F4FEA400C11
:1032F000E6D018BFBCF17F4F38BF7047EAE79CEAC1
:10330000026F05D010EA5C0F08BF00F00040704764
:1033100010B500F0E9F800BF64FBBE3E10B500F048
:1033200033F80CBF0120002010BD10B500F02CF8C0
:1033300014BF0120002010BD10B500F06DF88CBF47
:103340000120002010BD10B500F066F82CBF012050
:10335000002010BD10B500F093F894BF01200020AC
:1033600010BD10B500F08CF834BF0120002010BD56
:10337000401058BFC0F14040491058BFC1F1404112
:103380008142EFF30080704750EA010C00F1138096
:103390001CF5000F58BFBCF5000F01D488427047E0
:1033A00007D710F5000F58BF11F5000F15D488424C
:1033B0007047894270471CF5000F04D5BCF5000F1B
:1033C000F7D5814270474FF0807C1CEB400F38BF2F
:1033D0001CEB410F01D28142704710B500F084F818
:1033E000922449004FF000504FF08051FFF7C0BFCA
:1033F000B0FA80F310FA03F2C3F19D030AD0D905A5
:1034000001EB1220530638BF704700F1010008BFDE
:1034100020F001007047000050EA010C00F1138019
:103420001CF5000F58BFBCF5000F01D4884270474F
:1034300007D710F5000F58BF11F5000F15D48842BB
:103440007047894270471CF5000F04D5BCF5000F8A
:10345000F7D5814270474FF0807C1CEB400F38BF9E
:103460001CEB410F01D28142704710B500F03CF8CF
:10347000922449004FF080504FF00051FFF778BF81
:1034800050EA010C00F113801CF5000F58BFBCF589
:10349000000F01D48842704707D710F5000F58BFBE
:1034A00011F5000F15D488427047894270471CF50A
:1034B000000F04D5BCF5000FF7D5814270474FF0DF
:1034C000807C1CEB400F38BF1CEB410F01D28142C6
:1034D000704710B500F008F8922449004FF00050F2
:1034E0004FF08051FFF744BF0EF1020E2EF0030E95
:1034F0005EF8044B244204D44FEA4102B2F17F4FFC
:1035000011D84FEA4003B3F17F4F0CD80ED14FEAE8
:10351000D07C0CEB4C0C0CF1020CB2F17F4F08BFCD
:103520004CEBD17C04E04FF0080C01E04FEAD17C79
:103530000CEB4C0324FA03F404F00704B4F1040C7C
:1035400006D20EEB840CBDE810404CF0010C604735
:10355000DFE80CF0070802024FF00040A0F5800001
:1035600010BD0846420018BFD2F1807288BF00F03B
:10357000004010BDFF2141EAD050C0057047000057
:1035800090EA010F48BF81F000413FF56CAE421A4E
:1035900004D882F00042A0EB020011444FEAD0525E
:1035A000A2EBD1534FF07F4C1CEA410F18BF9CEAAD
:1035B000026F4AD04FF0004C4CEA00204CEA012147
:1035C00021FA03FCB0EB0C0C0FD412F0FE0F36D036
:1035D0005FEA4C001DD5001240EBC25038BF704767
:1035E0001CF03F0F18BF70470BE05FEA1C20A2F1F0
:1035F000010240EBC25038BF70471CF07F0F18BF6C
:103600007047C3F12003994014BF401E20F0010011
:1036100070474FEA1223800808BF7047B0FA80FC59
:10362000A2EB0C02CCF1280C60FA0CF093EA122FFA
:1036300004BF00EBC25070474FEAC3707047130AD3
:103640005FEADC1008BF7047F6E79CEA026F04D01F
:1036500010EA5C0F08BF0020704710B5FFF744FF69
:1036600040DFF63E81F000407047FCF76CBF000081
:1036700002400000000000A0000000000540000023
:10368000000000C8000000000C4000000000409C4A
:1036900000000000194000000020BCBE0000000037
:1036A00034400000BFC91B8E00000004B54000007C
:1036B000504BCFD06607E2CF010000006C41000004
:1036C0003E8251AADFEEA73401000000D94200007B
:1036D000DCB5A0E23A301F97FFFFFFFFB4450000C2
:1036E000FD25A0C8E9A3C14FFFFFFFFFFF3F00007A
:1036F0000000008000000000FF3F0000000000808C
:1037000000000000000000000000000001020304AF
:103710000607080900000000010203040102020379
:103720000405060708090A0B0C0D0E0F1010000007
:103730007037000800000020200000005001000841
:103740009037000820000020A80700007001000842
:103750001C00000043000000F8FFFFFF0C00000009
:103760000E0000000F0000002E000000000000000E
:1037700000127A00666696420000F4410000704232
:103780000000C8410100000010000000000000001F
:04000005080000ED02
:00000001FF
